:1000000012C02DC02BC02AC029C028C027C026C0BE
:1000100025C024C023C022C021C020C01FC01EC0D4
:100020001DC01CC01BC011241FBECFE5D4E0DEBF25
:10003000CDBF10E0A0E6B0E0EEE6F8E102C005902A
:100040000D92A436B107D9F710E0A4E6B0E001C0E4
:100050001D92A636B107E1F745D007CCD1CF1F924C
:100060000F920FB60F9211248F939F9381E090E02F
:1000700090936500809364009F918F910F900FBEC5
:100080000F901F90189520ED37E044E650E0CA012C
:100090000197F1F721503040D1F7E1E3F0E08081A2
:1000A00080618083E2E3F0E0808184608083EFE51B
:1000B000F0E0808180688083EBE5F0E080818064FF
:1000C0008083E5E5F0E080818260808380818E7F9F
:1000D0008083089536D636D5D6DF82E4CBD784E444
:1000E000C9D708952F923F924F925F926F927F925D
:1000F0008F929F92AF92BF92CF92DF92EF92FF9238
:100100000F931F93DF93CF93CDB7DEB7C054D0408A
:100110000FB6F894DEBF0FBECDBFDCDF41E050E08C
:100120005EAF4DAF5CAF4BAF5AAF49AF2224332423
:10013000239466247724689461F8AA24BB246894E5
:10014000A1F8CC24DD246894C1F8EE24FF2468943F
:10015000E1F81AE00F2EF0E14F2EF7E25F2EF02DBE
:100160000F2EF8EE8F2EF3E09F2EF02D80E090E022
:100170008FAF21969FAF219721E030E0EBE2F0E0D6
:10018000808188230CF06CC1CE01419668E270E05A
:1001900022D62D8930E0205D34418B89F4E68F9F93
:1001A000C0011124280F391F8C89819FC00111249F
:1001B000280F391F898990E0C097AC01449DC00188
:1001C000459D900D549D900D1124280F391F8A894B
:1001D00090E0C097FC01E89DC001E99D900DF89D5D
:1001E000900D1124A901480F591F5EAF4DAF2A8D04
:1001F00030E0205D3441888D54E6859FC001112494
:10020000280F391F898D819FC0011124280F391FA4
:100210008E8990E0C097FC01E49DC001E59D900DA2
:10022000F49D900D1124280F391F8F8990E0C097FD
:10023000AC01489DC001499D900D589D900D112421
:10024000F901E80FF91FFCAFEBAF2F8D30E0205D17
:1002500034418D8DF4E68F9FC0011124280F391F82
:100260008E8D819FC0011124280F391F8B8D90E046
:10027000C097AC01449DC001459D900D549D900DCB
:100280001124280F391F8C8D90E0C097FC01E89D48
:10029000C001E99D900DF89D900D1124A901480F12
:1002A000591F5AAF49AF2CA130E0205D34418AA1DB
:1002B00054E6859FC0011124280F391F8BA1819F0F
:1002C000C0011124280F391F88A190E0C097FC01BC
:1002D000E49DC001E59D900DF49D900D1124280F23
:1002E000391F89A190E0C097AC01489DC001499D8C
:1002F000900D589D900D11241901280E391E29A525
:1003000030E0205D34418FA154E6859FC001112467
:10031000280F391F88A5819FC0011124280F391F7C
:100320008DA190E0C097FC01E49DC001E59D900D7A
:10033000F49D900D1124280F391F8EA190E0C097D5
:10034000AC01489DC001499D900D589D900D112410
:100350003901680E791E2EA530E0205D34418CA550
:1003600054E6859FC0011124280F391F8DA5819F58
:10037000C0011124280F391F8AA590E0C097FC0105
:10038000E49DC001E59D900DF49D900D1124280F72
:10039000391F8BA590E0C097AC01489DC001499DD5
:1003A000900D589D900D11245901A80EB91E2BA92E
:1003B00030E0205D344189A954E6859FC0011124B5
:1003C000280F391F8AA9819FC0011124280F391FC6
:1003D0008FA590E0C097FC01E49DC001E59D900DC4
:1003E000F49D900D1124280F391F88A990E0C09723
:1003F000AC01489DC001499D900D589D900D112460
:100400006901C80ED91E28AD30E0205D34418EA9A7
:1004100054E6859FC0011124280F391F8FA9819FA1
:10042000C0011124280F391F8CA990E0C097FC014E
:10043000E49DC001E59D900DF49D900D1124280FC1
:10044000391F8DA990E0C097AC01489DC001499D1E
:10045000900D589D900D11247901E80EF91E03C0EE
:1004600021153105A1F08DAD9EAD6BAD7CAD49ADD3
:100470005AAD910102E7E2D4C301B501A60197018B
:1004800004E7DCD48FAD21969FAD21979C0180912C
:10049000640090916500892B09F470CE80E29EE49F
:1004A0000197F1F782E4BE016F5F7F4FAE014B5FB2
:1004B0005F4FFBD584E4BE01675F7F4FAE01435FB2
:1004C0005F4FF3D5CE01099664E070E04DD4C201D0
:1004D0000197F1F74985552747FD50956A8577279C
:1004E00067FD7095EB85FF27E7FDF095AC85BB2791
:1004F000A7FDB0952D8121029001112489819927B2
:1005000087FD9095280F391F8DAD9EAD820F931FEB
:100510009EAF8DAF2E812102900111248A819927EF
:1005200087FD9095280F391F8BAD9CAD820F931FCF
:100530009CAF8BAF2F812102900111248B819927D1
:1005400087FD9095280F391F89AD9AAD820F931FB3
:100550009AAF89AF28852102900111248C819927B7
:1005600087FD9095280F391F220E331E1D821E8293
:100570001F8218868D858102C0011124840F951F6A
:10058000680E791E8E858102C0011124860F971F87
:10059000A80EB91E8F858102C00111248E0F9F1FE6
:1005A000C80ED91E88898102C00111248A0F9B1FA1
:1005B000E80EF91E1D861E861F86188AE2E3F0E00B
:1005C000808180618083C4010197F1F780818F7EF3
:1005D0008083C4010197F1F71092650010926400C6
:1005E000CBCDCF92DF92EF92FF920F931F93DF93C9
:1005F000CF93CDB7DEB7A6970FB6F894DEBF0FBE88
:10060000CDBF9A8F898F7C8F6B8F5E8F4D8F38A374
:100610002F8F1AA309A3FCA2EBA2DEA2CDA2298DE3
:100620003A8DCE010196B90153D6CE0107962B8D96
:100630003C8DB9014DD6CE010D962D8D3E8DB90163
:1006400047D6CE0143962F8D38A1B90141D6CE01B0
:100650000196A2D0CE0107969FD0CE010D969CD0D8
:10066000CE01439699D08981E9A1FAA1808389A11D
:100670009AA1FC0131968A81808389A19AA1FC010B
:1006800032968B81808389A19AA1FC0133968C815B
:10069000808389A19AA1FC0134968D81808389A1F0
:1006A0009AA1FC0135968F81808389A19AA1FC01D2
:1006B00036968885808389A19AA1FC013796898521
:1006C00080838A85EBA1FCA180838BA19CA1FC0186
:1006D00031968B8580838BA19CA1FC0132968D8500
:1006E00080838BA19CA1FC0133968E8580838BA196
:1006F0009CA1FC0134968F8580838BA19CA1FC0179
:100700003596888980838BA19CA1FC0136968989C6
:1007100080838BA19CA1FC0137968B8980838C8977
:10072000EDA1FEA180838DA19EA1FC0131968D8952
:1007300080838DA19EA1FC0132968E8980838DA13C
:100740009EA1FC0133968F8980838DA19EA1FC011F
:10075000349688E080838DA19EA1FC01359688E0C7
:1007600080838DA19EA1FC0136968AE080838DA1B5
:100770009EA1FC0137968AE08083A6960FB6F89476
:10078000DEBF0FBECDBFCF91DF911F910F91FF90C4
:10079000EF90DF90CF900895DF93CF9300D000D0FB
:1007A00000D0CDB7DEB79C838B831A821982A9C093
:1007B00029813A818B819C81FC01E20FF31F8081AA
:1007C000282F332727FD30953E832D838D819E81F1
:1007D0008035910509F461C02D813E8121353105B7
:1007E0001CF58D819E818534910509F442C02D81CF
:1007F0003E81263431056CF48D819E8180329105D5
:1008000009F45FC02D813E812D32310509F44FC0BE
:1008100062C08D819E818834910509F12D813E81D0
:100820002C34310581F157C08D819E818836910528
:10083000B1F02D813E812936310534F48D819E81C0
:1008400085369105B1F047C02D813E812C363105AA
:10085000D1F08D819E8180379105F9F03CC02981CE
:100860003A818B819C81FC01E20FF31F8CE0808335
:1008700043C029813A818B819C81FC01E20FF31FE7
:100880008BE0808339C029813A818B819C81FC0176
:10089000E20FF31F8DE080832FC029813A818B8185
:1008A0009C81FC01E20FF31F8EE0808325C029812B
:1008B0003A818B819C81FC01E20FF31F8AE08083E7
:1008C0001BC029813A818B819C81FC01E20FF31FBF
:1008D0008FE0808311C029813A818B819C81DC016A
:1008E000A20FB31F29813A818B819C81FC01E20F09
:1008F000F31F808180538C9389819A8101969A831A
:10090000898389819A81853091050CF451CF26968F
:100910000FB6F894DEBF0FBECDBFCF91DF91089523
:10092000DF93CF93CDB7DEB727970FB6F894DEBF2E
:100930000FBECDBF9B838A837D836C835F834E8391
:100940008E819F81C5D089838C819D8192D0EA81DF
:10095000FB8180E180838A819B81FC0131968981C2
:10096000806180838A819B81DC011296EC81FD810C
:1009700080818C938A819B81FC013396898180835D
:100980008A819B81DC0114968C819D81FC013196CA
:1009900080818C938A819B81FC013596898180833B
:1009A0008A819B81DC0116968C819D81FC013296A7
:1009B00080818C938A819B81FC0137968981808319
:1009C0008A819B81DC0118968C819D81FC01339684
:1009D00080818C938A819B81FC01399689818083F7
:1009E0008A819B81DC011A968C819D81FC01349661
:1009F00080818C938A819B81FC013B9689818083D5
:100A00008A819B81DC011C968C819D81FC0135963D
:100A100080818C938A819B81FC013D9689818083B2
:100A20008A819B81DC011E968C819D81FC0136961A
:100A300080818C938A819B81FC013F968981808390
:100A40008A819B81DC0150968C819D81FC013796C7
:100A500080818C938A819B81FC017196898180833E
:100A600027960FB6F894DEBF0FBECDBFCF91DF91B2
:100A70000895DF93CF9300D000D0CDB7DEB79C832D
:100A80008B831A82198218C029813A818B819C81BB
:100A9000FC01E20FF31F808180314CF029813A8103
:100AA0008B819C81FC01E20FF31F8FE080838981A1
:100AB0009A8101969A83898389819A8185309105EB
:100AC0001CF30F900F900F900F90CF91DF9108952E
:100AD000DF93CF9300D000D000D0CDB7DEB79A839C
:100AE000898389819A819E838D838D819E818230C5
:100AF000910579F08D819E818330910579F08D810A
:100B00009E818130910579F480E290E09C838B8313
:100B10000EC080E490E09C838B8309C080E890E065
:100B20009C838B8304C080E290E09C838B838B81C9
:100B30009C8126960FB6F894DEBF0FBECDBFCF9135
:100B4000DF910895DF93CF93CDB7DEB7E0E2F0E019
:100B500088E08083E1E2F0E08CEF8083CF91DF9149
:100B60000895DF93CF93CDB7DEB7E6E5F0E084EAF2
:100B70008083E6E5F0E080818823DCF7E1E2F0E0C5
:100B80008081887FCF91DF910895DF93CF93CDB798
:100B9000DEB7E6E5F0E084E98083E1E2F0E0808121
:100BA000887FCF91DF910895DF93CF930F92CDB7D8
:100BB000DEB78983E3E2F0E089818083E6E5F0E057
:100BC00084E88083E6E5F0E080818823DCF7E1E2D9
:100BD000F0E08081887F0F90CF91DF910895DF93BF
:100BE000CF9300D000D0CDB7DEB79A8389837C83C2
:100BF0006B83E6E5F0E08B819C81002496958795D8
:100C00000794969587950794982F802D8468808304
:100C1000E6E5F0E080818823DCF7E3E2F0E0808124
:100C2000E981FA818083E1E2F0E08081887F0F90A2
:100C30000F900F900F90CF91DF910895DF93CF9396
:100C400000D0CDB7DEB7E1E2F0E08081882F90E000
:100C5000887F90708832910529F481E090E09A8332
:100C6000898302C01A82198289819A810F900F901C
:100C7000CF91DF910895DF93CF93CDB7DEB729975A
:100C80000FB6F894DEBF0FBECDBF9E838D837887ED
:100C90006F8349871C821B8264DF898585DF1A8206
:100CA000198216C029813A818D819E81FC01E20F53
:100CB000F31F808179DFC2DF009729F08B819C814F
:100CC00001969C838B8389819A8101969A8389837B
:100CD00029813A818F819885281739071CF355DFC0
:100CE0008B819C8129960FB6F894DEBF0FBECDBFD5
:100CF000CF91DF910895DF93CF9300D000D0CDB78F
:100D0000DEB79A8389836B834C832BDF8B814CDF27
:100D10008C814ADF26DF8B81816046DF89819A8161
:100D200061E070E05CDF89819A81019660E070E0AB
:100D300056DF2BDF0F900F900F900F90CF91DF9128
:100D40000895DF93CF93CDB7DEB7EAE2F0E088E114
:100D50008083E0E4F0E086E88083E9E2F0E087E683
:100D60008083CF91DF910895DF93CF9300D000D09F
:100D700000D0CDB7DEB79C838B837E836D831A82D0
:100D8000198219C0EBE2F0E08081882F90E0807238
:100D900090700097B9F3ACE2B0E029813A818B8181
:100DA0009C81FC01E20FF31F80818C9389819A81E1
:100DB00001969A83898329813A818D819E812817A2
:100DC000390704F326960FB6F894DEBF0FBECDBFE9
:100DD000CF91DF910895DF93CF9300D000D000D062
:100DE000CDB7DEB79C838B837E836D831A82198295
:100DF00015C0EBE2F0E080818823DCF729813A819D
:100E00008B819C81DC01A20FB31FECE2F0E08081BA
:100E10008C9389819A8101969A83898329813A8169
:100E20008D819E812817390724F326960FB6F894F2
:100E3000DEBF0FBECDBFCF91DF910895CF92DF927D
:100E4000EF92FF920F931F93DF93CF93CDB7DEB74F
:100E5000CB54D0400FB6F894DEBF0FBECDBFFE011D
:100E6000ED5BFF4F91838083FE01EB5BFF4F71834E
:100E70006083FE01E95BFF4F51834083FE01E75B26
:100E8000FF4F31832083FE01E55BFF4F008300D0DD
:100E900000D000D0ADB7BEB71196CE0143961196E3
:100EA0009C938E9380E690E013969C938E9312977A
:100EB000FE01ED5BFF4F8081918115969C938E938F
:100EC00014970DD28DB79EB706960FB6F8949EBFB5
:100ED0000FBE8DBF00D000D000D0ADB7BEB7119609
:100EE000CE01499611969C938E9380E690E01396DE
:100EF0009C938E931297FE01EB5BFF4F8081918153
:100F000015969C938E931497EAD18DB79EB706964B
:100F10000FB6F8949EBF0FBE8DBF00D000D000D09A
:100F2000ADB7BEB71196CE014F9611969C938E9396
:100F300080E690E013969C938E931297FE01E95BF6
:100F4000FF4F8081918115969C938E931497C7D102
:100F50008DB79EB706960FB6F8949EBF0FBE8DBF95
:100F600000D000D000D0ADB7BEB71196CE018596A7
:100F700011969C938E9380E690E013969C938E93AB
:100F80001297FE01E75BFF4F8081918115969C933C
:100F90008E931497A4D18DB79EB706960FB6F8948A
:100FA0009EBF0FBE8DBFCE0143969E01275E3F4F71
:100FB000AE01415E5F4FFE01B596DE019B960F2E9E
:100FC000F3E3EF2EFF24F02DEC0EFD1E0F2EFBE3BE
:100FD000CF2EDD24F02DCC0EDD1EB9019F018D0139
:100FE00000DB9E01255D3F4FCE010196B90141E036
:100FF00050E096DCFE01E55BFF4F2081CE010196BB
:1010000062E170E0422F37DE9E012D5C3F4FCE0142
:101010000196B90142E050E083DCFE01E55BFF4F41
:101020002081CE01019662E170E0422F24DE9E0114
:10103000255C3F4FCE010196B90143E050E070DCE2
:10104000FE01E55BFF4F2081CE01019662E170E079
:10105000422F11DEC55BDF4F0FB6F894DEBF0FBE27
:10106000CDBFCF91DF911F910F91FF90EF90DF9057
:10107000CF900895DF93CF9300D000D0CDB7DEB7E7
:101080008C838AE0898381E08A8381E08B832C8151
:10109000CE01019663E070E0422FEDDD0F900F90DE
:1010A0000F900F90CF91DF910895DF93CF93CDB73D
:1010B000DEB729970FB6F894DEBF0FBECDBF8D8384
:1010C0007F836E83598748872D81CE010196622FD9
:1010D00040E011DE2D81CE010396622F48E00BDE49
:1010E0008C8199812E813F81692FA9010ED0898140
:1010F00028853985B9019ED029960FB6F894DEBFB0
:101100000FBECDBFCF91DF910895DF93CF93CDB7C1
:10111000DEB72E970FB6F894DEBF0FBECDBF8B871C
:101120006C875E874D878B8581708B838B85882F3D
:1011300090E082709070959587958C838B85882F31
:1011400090E08470907095958795959587958D839F
:101150008B85882F90E088709070959587959595F0
:101160008795959587958E838C8581708F838C85E7
:10117000882F90E0827090709595879588878C85F0
:10118000882F90E0847090709595879595958795B8
:1011900089878C85882F90E08870907095958795C9
:1011A00095958795959587958A871A82198234C077
:1011B00029813A818D859E85FC01E20FF31F108203
:1011C00029813A81CE010396FC01E20FF31F808151
:1011D0008823E9F429813A81CE010796FC01E20FC8
:1011E000F31F8081882351F029813A818D859E8566
:1011F000FC01E20FF31F81E0808309C029813A815D
:101200008D859E85FC01E20FF31F8FEF808389811E
:101210009A8101969A83898389819A818430910584
:101220003CF22E960FB6F894DEBF0FBECDBFCF9125
:10123000DF910895DF93CF9300D00F92CDB7DEB743
:1012400089837B836A838981882F90E08071907085
:101250009595879595958795959587959595879576
:10126000EA81FB8180838A819B81FC01319689819F
:10127000882F90E0807290709595879595958795C9
:1012800095958795959587959595879580838A817E
:101290009B81FC0132968981882F90E08074907048
:1012A000082E892F000C881F990B000C881F991F8E
:1012B00080838A819B81FC0133968981881F8827DE
:1012C000881F80830F900F900F90CF91DF9108952A
:1012D000FB01DC0101900D920020E1F70895AEE0E2
:1012E000B0E0E4E7F9E098C20D891E8986E08C83BE
:1012F0001A8309838FEF9FE79E838D839E01275E6C
:101300003F4FCE0101966F89788DA90109D02F81B9
:101310003885020F131FF80110822E96E4E098C260
:10132000ABE0B0E0E5E9F9E069C23C012B015A010C
:10133000FC0117821682838181FD03C06FEF7FEF6E
:10134000B9C19AE0892E1E010894211C311CF301B9
:101350002381F20123FD859123FF81912F018823B1
:1013600009F4A5C1853239F423FD859123FF8191CC
:101370002F01853221F490E0B301B6D1E8CF982F48
:10138000FF24EE249924FFE1FF15D0F09B3269F091
:101390009C3228F4903259F0933291F40EC09D3271
:1013A00049F0903369F441E024C052E0F52A84E02A
:1013B000F82A28C098E0F92A25C0E0E1FE2A22C0D8
:1013C000F7FC29C0892F80538A3070F4F6FE05C0DF
:1013D000989C902C1124980E15C0E89CE02C1124A8
:1013E000E80EF0E2FF2A0EC09E3229F4F6FC5FC13F
:1013F00040E4F42A07C09C3619F450E8F52A02C0EC
:10140000983649F4F20123FD959123FF91912F0124
:10141000992309F0B8CF892F8554833018F0805272
:10142000833038F444E050E0A40EB51E5FE35983E6
:101430000FC0933631F0933779F0933509F052C0ED
:101440001FC0F5018081898342E050E0A40EB51EE3
:10145000610101E010E011C0F501C080D180F6FC0F
:1014600003C06FEF7FEF02C0692D70E042E050E0F3
:10147000A40EB51EC6012DD18C015FE7F52213C065
:10148000F501C080D180F6FC03C06FEF7FEF02C092
:10149000692D70E042E050E0A40EB51EC6010ED1E9
:1014A0008C0150E8F52AF3FE06C018C080E290E0F7
:1014B000B3011AD1EA948E2D90E008171907B0F302
:1014C0000DC0F601F7FC8591F7FE81916F0190E068
:1014D000B3010AD1E110EA94015010400115110541
:1014E00081F7E2C0943611F0993661F5F7FE08C035
:1014F000F501208131814281538184E090E00AC06E
:10150000F501808191819C01442737FD4095542F3E
:1015100082E090E0A80EB91E9FE6F92257FF09C0AD
:1015200050954095309521953F4F4F4F5F4FE0E8E4
:10153000FE2ACA01B901A1012AE030E001D1D82E6A
:10154000D2183FC0953729F41F2D1F7E2AE030E0C6
:101550001DC01F2D197F9F3661F0903720F49835FC
:1015600009F0A5C00FC0903739F0983709F09FC037
:1015700004C028E030E00AC0106114FD146020E1CE
:1015800030E004C014FD166020E132E017FF08C00F
:10159000F501608171818281938144E050E008C04F
:1015A000F50180819181BC0180E090E042E050E053
:1015B000A40EB51EA101C4D0D82ED2188FE7F82EE4
:1015C000F122F6FE0BC05EEFF522D91438F4F4FEDA
:1015D00007C0F2FC05C08FEEF82202C01D2D01C02D
:1015E000192DF4FE0DC0FE01ED0DF11D808180333B
:1015F00019F499EEF92208C01F5FF2FE05C003C07E
:101600008F2D867809F01F5F0F2DF3FC13C0F0FEBD
:101610000EC01E1510F09D2C0AC09D2C9E0C911A18
:101620001E2D05C080E290E0B3015ED01F5F1E1545
:10163000C8F304C01E1510F4E11A01C0EE2404FF23
:101640000EC080E390E0B3014FD002FF1BC001FD4C
:1016500003C088E790E00EC088E590E00BC0802FC3
:10166000867881F001FF02C08BE201C080E2F7FCC6
:101670008DE290E0B30138D005C080E390E0B30183
:1016800033D09A94D914C8F3DA94F101ED0DF11D19
:10169000808190E0B30128D0DD20B1F705C080E261
:1016A00090E0B30121D0EA94EE20C9F750CEF301C7
:1016B00066817781CB012B96E2E1BCC0FC010590ED
:1016C000615070400110D8F7809590958E0F9F1F44
:1016D0000895FC016150704001900110D8F7809589
:1016E00090958E0F9F1F08950F931F93CF93DF93B5
:1016F0008C01EB018B8181FF1BC082FF0DC02E810D
:101700003F818C819D812817390764F4E881F98134
:101710000193F983E88306C0E885F985802F099550
:10172000892B31F48E819F8101969F838E8302C025
:101730000FEF1FEFC801DF91CF911F910F91089517
:10174000FA01AA27283051F1203181F1E8946F93F2
:101750006E7F6E5F7F4F8F4F9F4FAF4FB1E03ED098
:10176000B4E03CD0670F781F891F9A1FA11D680F36
:10177000791F8A1F911DA11D6A0F711D811D911D69
:10178000A11D20D009F468943F912AE0269F1124DE
:101790003019305D3193DEF6CF010895462F477042
:1017A000405D4193B3E00FD0C9F7F6CF462F4F709D
:1017B000405D4A3318F0495D31FD4052419302D0FB
:1017C000A9F7EACFB4E0A6959795879577956795A1
:1017D000BA95C9F700976105710508959B01AC01A1
:1017E0000A2E06945795479537952795BA95C9F7C8
:1017F000620F731F841F951FA01D08952F923F92A3
:101800004F925F926F927F928F929F92AF92BF9210
:10181000CF92DF92EF92FF920F931F93CF93DF93BC
:10182000CDB7DEB7CA1BDB0B0FB6F894DEBF0FBE19
:10183000CDBF09942A88398848885F846E847D8466
:101840008C849B84AA84B984C884DF80EE80FD8068
:101850000C811B81AA81B981CE0FD11D0FB6F894DE
:0E186000DEBF0FBECDBFED010895F894FFCF9F
:04186E0025356400B8
:00000001FF
